:020000040000FA
:100000000C945D000C9485000C9485000C944B03BB
:100010000C944B030C944B030C9485000C948500BA
:100020000C9485000C9485000C9485000C9470044D
:100030000C9485000C9485000C9485000C9485002C
:100040000C94A9020C9485000C9419030C94F302EF
:100050000C9485000C9485000C9485000C9485000C
:100060000C9455030C948500000000002400270028
:100070002A0000000000250028002B0004040404CE
:100080000404040402020202020203030303030342
:10009000010204081020408001020408102001021F
:1000A00004081020000000080002010000030407FB
:1000B00000000000000000002C0511241FBECFEF3F
:1000C000D8E0DEBFCDBF11E0A0E0B1E0E6EAF1E1AB
:1000D00002C005900D92A032B107D9F722E0A0E24C
:1000E000B1E001C01D92A236B207E1F710E0CDE504
:1000F000D0E004C02197FE010E94CB08CC35D10787
:10010000C9F70E9489050C94D1080C94000090E076
:10011000FC01EC55FF4F2491FC01E057FF4F349157
:10012000FC01E458FF4FE491EE23C9F0222339F09B
:10013000233001F1A8F4213019F1223029F1F0E047
:10014000EE0FFF1FEE58FF4FA591B4918FB7F894B3
:10015000EC91611126C030953E233C938FBF0895EA
:100160002730A9F02830C9F0243049F78091800069
:100170008F7D03C0809180008F7780938000DFCFD8
:1001800084B58F7784BDDBCF84B58F7DFBCF809125
:10019000B0008F778093B000D2CF8091B0008F7D78
:1001A000F9CF3E2BDACFAF92BF92CF92DF92EF9290
:1001B000FF920F931F93CF93DF936C017B018B0111
:1001C000040F151FEB015E01AE18BF08C017D10761
:1001D00059F06991D601ED91FC910190F081E02DEB
:1001E000C6010995892B79F7C501DF91CF911F9140
:1001F0000F91FF90EF90DF90CF90BF90AF90089558
:10020000FC01538D448D252F30E0842F90E0821B1C
:10021000930B541710F0CF96089501970895FC01A1
:10022000918D828D981761F0A28DAE0FBF2FB11DF9
:100230005D968C91928D9F5F9F73928F90E0089551
:100240008FEF9FEF0895FC01918D828D981731F00B
:10025000828DE80FF11D858D90E008958FEF9FEF5F
:100260000895FC01918D228D892F90E0805C9F4F35
:10027000821B91098F73992708958DE991E00E945F
:10028000310121E0892B09F420E0822F089580E0DC
:1002900090E0892B29F00E943D0181110C9400000F
:1002A0000895FC01A48DA80FB92FB11DA35ABF4F0B
:1002B0002C91848D90E001968F739927848FA68965
:1002C000B7892C93A089B1898C91837080648C93B9
:1002D000938D848D981306C00288F389E02D808168
:1002E0008F7D80830895EF92FF920F931F93CF939A
:1002F000DF93EC0181E0888F9B8D8C8D98131AC061
:10030000E889F989808185FF15C09FB7F894EE8947
:10031000FF896083E889F9898081837080648083A4
:100320009FBF81E090E0DF91CF911F910F91FF90EF
:10033000EF900895F62E0B8D10E00F5F1F4F0F7397
:100340001127E02E8C8D8E110CC00FB607FCFACF52
:10035000E889F989808185FFF5CFCE010E9451019E
:10036000F1CFEB8DEC0FFD2FF11DE35AFF4FF08223
:100370009FB7F8940B8FEA89FB8980818062CFCF89
:10038000CF93DF93EC01888D8823B9F0AA89BB89CC
:10039000E889F9898C9185FD03C0808186FD0DC0B7
:1003A0000FB607FCF7CF8C9185FFF2CF808185FFD8
:1003B000EDCFCE010E945101E9CFDF91CF91089599
:1003C00020914801260F3327331F21323105ECF4E9
:1003D00020916C01FC0190E080E0243069F082E023
:1003E0000895A09148012191AC01485D5E4FA40F92
:1003F000B52FB11D2C930196861798F38091480173
:10040000680F6093480180E0089581E008950895A1
:100410008FEF9FEF08958FEF9FEF08958091210157
:1004200090E09195819591090895CF93DF93CB0149
:10043000EA01642F0E94E001CE01DF91CF9108957F
:10044000CF93DF931F92CDB7DEB7698361E0CE0112
:1004500001960E94E00181E090E00F90DF91CF9142
:10046000089590E080E008951F93CF93DF9385ED8A
:100470008093BC008091240190912501A0912601D8
:10048000B09127010796A11DB11D23E0B695A79550
:10049000979587952A95D1F72091BC0024FD03C03C
:1004A00010926C0152C0409124015091250160913D
:1004B000260170912701452B462B472B69F30097A6
:1004C000A105B10541F02AE22A95F1F700C0019794
:1004D000A109B109E1CF80912301C1E0C0932201BC
:1004E000882399F1D091B8001091BA008091BC0096
:1004F0008A7B8093BC0060E082E10E94870060E01C
:1005000083E10E94870010926C01C0936E011092EB
:100510006D0161E082E10E94870061E083E10E9459
:1005200087008091B9008E7F8093B9008091B900D7
:100530008D7F8093B90088E48093B80085E4809330
:10054000BC001093BA00D093B800DF91CF911F91F7
:1005500008951F920F920FB60F9211242F933F937D
:100560008F939F93AF93BF938091990190919A013C
:10057000A0919B01B0919C013091980123E0230F41
:100580002D3758F50196A11DB11D20939801809338
:10059000990190939A01A0939B01B0939C01809143
:1005A000940190919501A0919601B09197010196C7
:1005B000A11DB11D8093940190939501A093960184
:1005C000B0939701BF91AF919F918F913F912F91E0
:1005D0000F900FBE0F901F90189526E8230F0296DC
:1005E000A11DB11DD2CF1F920F920FB60F921124F1
:1005F0002F933F934F935F936F937F938F939F932B
:10060000AF93BF93EF93FF938DE991E00E94510167
:10061000FF91EF91BF91AF919F918F917F916F91DA
:100620005F914F913F912F910F900FBE0F901F90B0
:1006300018951F920F920FB60F9211242F938F933C
:100640009F93EF93FF93E091AD01F091AE01808114
:10065000E091B301F091B40182FD1BC090818091C3
:10066000B6018F5F8F732091B701821741F0E0913F
:10067000B601F0E0E356FE4F958F8093B601FF91EF
:10068000EF919F918F912F910F900FBE0F901F9020
:1006900018958081F4CF1F920F920FB60F921124FC
:1006A0000F900FBE0F901F9018951F920F920FB6CC
:1006B0000F9211242F933F934F935F936F937F93E8
:1006C0008F939F93AF93BF93EF93FF938091B90064
:1006D000887F803609F44AC0F0F5883209F4A5C055
:1006E00018F5803109F499C0B8F4882309F4F5C0ED
:1006F000883009F492C0FF91EF91BF91AF919F9123
:100700008F917F916F915F914F913F912F910F90BA
:100710000FBE0F901F901895883109F486C0803263
:1007200051F780936B0114C0803409F49BC040F4EE
:100730008033B9F38833F9F680936B0185ECAEC052
:10074000803509F483C0883509F494C0883499F65B
:100750000E943402D0CF883909F48AC038F588372E
:1007600029F050F4883611F0803729F683E0809321
:100770006C0110926A0155C0883809F479C080393B
:1007800019F0803809F0B7CF80916A01803208F003
:100790006FC0E0916A0181E08E0F80936A018091C1
:1007A000BB00F0E0E65BFE4F80833BC0803B39F04E
:1007B000D0F4803A09F477C0883A09F09CCF84E0FD
:1007C00080936C011092490110924801F0E0E0E042
:1007D00009958091480181110FC081E08093480103
:1007E0001092280109C0803C09F4A8CF883C09F484
:1007F000A5CF883B09F07FCFE091490181E08E0FC2
:1008000080934901F0E0E85DFE4F80818093BB005A
:10081000909149018091480129C080919101809374
:10082000BB0085EC8093BC0066CF909190018091D5
:100830008F01981758F5E091900181E08E0F809319
:100840009001F0E0E159FE4F8081E9CFE091900105
:1008500081E08E0F809390018091BB00F0E0E15920
:10086000FE4F80839091900180918F019817C8F27C
:1008700085E8D8CFE091900181E08E0F80939001C0
:100880008091BB00F0E0E159FE4F808380916E01C2
:1008900081115ECF81E080936D0184EA8093BC007A
:1008A00010926C0128CF85EC8093BC0010926C01F3
:1008B00080916A01803230F4E0916A01F0E0E65BF9
:1008C000FE4F108260916A0170E08AE491E0F0E0EE
:1008D000E0E0099510926A010ECF10926B0138CFBB
:1008E0001F920F920FB60F9211242F933F934F93A5
:1008F0005F936F937F938F939F93AF93BF93CF93A8
:10090000DF93EF93FF9380912001C0915E02D0E0CE
:1009100087FF24C0109285001092840080912001EE
:100920008F5F8093200180912001082E000C990B8D
:100930008C179D0724F4809120018C30C4F18091A4
:10094000840090918500049680349C4908F47AC014
:100950008091840090918500049676C0809120015A
:10096000082E000C990B8C179D07C4F6E09120010E
:100970008E2FEE0F990BFC01EE0FFF1FE80FF91FF2
:10098000E65CFD4F808186FFC9CFE09120018E2F6C
:10099000EE0F990BFC01EE0FFF1FE80FF91FE65C4D
:1009A000FD4F808160E08F730E948700B7CF209158
:1009B000840030918500E09120018E2FEE0F990B7D
:1009C000FC01EE0FFF1FE80FF91FE65CFD4F818170
:1009D0009281820F931F9093890080938800E09109
:1009E00020018E2FEE0F990BFC01EE0FFF1FE80F79
:1009F000F91FE65CFD4F808186FF11C0E091200168
:100A00008E2FEE0F990BFC01EE0FFF1FE80FF91F61
:100A1000E65CFD4F808161E08F730E948700FF914B
:100A2000EF91DF91CF91BF91AF919F918F917F9186
:100A30006F915F914F913F912F910F900FBE0F904B
:100A40001F90189580E49CE990938900809388001A
:100A50008FEF80932001E3CF1092A00110929F01AD
:100A600088EE93E0A0E0B0E08093A1019093A20112
:100A7000A093A301B093A4018EE091E090939E0116
:100A800080939D0185EC90E09093AA018093A90149
:100A900084EC90E09093AC018093AB0180EC90E00B
:100AA0009093AE018093AD0181EC90E09093B00102
:100AB0008093AF0182EC90E09093B2018093B101FA
:100AC00086EC90E09093B4018093B3011092B6014C
:100AD0001092B7011092B8011092B90180915E0294
:100AE0008C3098F491E0980F90935E0280935F02AF
:100AF00090E0FC01EE0FFF1FE80FF91FE65CFD4FD1
:100B000088EB9BE09283818308958FEF80935F024F
:100B10000895CF93DF93CDB7DEB7A1970FB6F894C2
:100B2000DEBF0FBECDBF789484B5826084BD84B52E
:100B3000816084BD85B5826085BD85B5816085BDD8
:100B400080916E00816080936E0010928100809190
:100B50008100826080938100809181008160809318
:100B60008100809180008160809380008091B1003D
:100B700084608093B1008091B00081608093B00068
:100B800080917A00846080937A0080917A008260FC
:100B900080937A0080917A00816080937A008091BE
:100BA0007A00806880937A001092C100E091AD01D4
:100BB000F091AE0182E08083E091A901F091AA0159
:100BC0001082E091AB01F091AC018FEC8083109228
:100BD000B501E091B101F091B20186E08083E0912E
:100BE000AF01F091B001808180618083E091AF011D
:100BF000F091B001808188608083E091AF01F09135
:100C0000B001808180688083E091AF01F091B001F4
:100C100080818F7D80832AE0822E912CA12CB12CA3
:100C20008CE0E82E90E0292E90E0392E2FB7F89432
:100C30008091990190919A01A0919B01B0919C01A2
:100C40002FBF409102015091030160910401709106
:100C50000501841B950BA60BB70B813D9740A105A1
:100C6000B10508F42FC12FB7F894809199019091A4
:100C70009A01A0919B01B0919C012FBF809302012A
:100C800090930301A0930401B093050180915F024A
:100C90008C3008F067C0E9E9F0E02491E5E8F0E085
:100CA0008491882399F090E0880F991FFC01E859FE
:100CB000FF4FA591B491FC01EE58FF4F859194919F
:100CC0008FB7F8949C91292B2C938FBF80915F0252
:100CD000282F30E0F901EE0FFF1FE20FF31FE65C53
:100CE000FD4F9081907C99609083109260021092E9
:100CF00061026E2D0E94BF088E9DA001112430E07C
:100D000020E0BA01620F731FFB01EE0FFF1FE60F19
:100D1000F71FE65CFD4F908196FD16C02F5F3F4F99
:100D20002C30310571F781110FC010928000F2E074
:100D3000F09381001092850010928400B19A809106
:100D40006F00826080936F00E0915F028E2F90E0D1
:100D5000FC01EE0FFF1FE80FF91FE65CFD4F8081DD
:100D6000806480830E94040824E130E040E050E089
:100D70000E945C08AB01BC014A505109610971092C
:100D8000A0910001B0910101A40FB51FB7FFD0C021
:100D90001092010110920001B0E0A0E0F0905F021B
:100DA0002BE02F1508F44EC08091610258E5C52E46
:100DB00052E0D52EC81AD10887FDD394CC0CDD1C87
:100DC000CC0CDD1C8091600208E810E0081B1109C2
:100DD00087FD1395000F111F000F111F2801012E11
:100DE000000C6608770896010D2C000C440B550B7F
:100DF00024193509460957090E94860824EB30E07A
:100E000040E050E00E945C08420E531E641E751EB6
:100E1000401651062CF086014C145D040CF482013E
:100E200002501109000F111F2FB7F8948F2D90E079
:100E3000FC01EE0FFF1FE80FF91FE65CFD4F128368
:100E400001832FBF4090000150900101052C000C40
:100E50006608770877FE76C06DE28DE991E00E9422
:100E6000730122273327A901241935094609570997
:100E700019A28E010F5D1F4FCA01B901A50194018E
:100E80000E948E08605DF80162938F012115310583
:100E90004105510589F70115110561F00190002008
:100EA000E9F73197AF01401B510BB8018DE991E093
:100EB0000E94D30042E050E06CE171E08DE991E0E6
:100EC0000E94D3002FB7F8948091990190919A01D4
:100ED000A0919B01B0919C012FBF409102015091C4
:100EE00003016091040170910501841B950BA60B11
:100EF000B70B853F9140A105B10570F0E0915F020D
:100F00008E2F90E0FC01EE0FFF1FE80FF91FE65C4B
:100F1000FD4F80818F7B80832114310409F486CEBC
:100F20000E943D01882309F47BCE0E94000078CE08
:100F3000A53BB10514F0A4EBB0E0B0930101A09380
:100F400000012CCFA301920119A28E010F5D1F4F4A
:100F5000CA01B901A50194010E948E08605DF801E3
:100F600062938F01211531054105510589F793CF12
:100F70008F929F92AF92BF92CF92DF92EF92FF92A9
:100F8000CF93DF93EC01688179818A819B81611520
:100F900071058105910521F464E279ED8BE597E017
:100FA0002DE133EF41E050E00E945C0849015A0115
:100FB0009B01AC01A7EAB1E40E947B086B017C01B4
:100FC000ACEEB4EFA50194010E948908C60ED71EAD
:100FD000E81EF91EF7FE06C081E0C81AD108E10834
:100FE00080E8F80AC882D982EA82FB82C701B6018A
:100FF0009F77DF91CF91FF90EF90DF90CF90BF90E0
:10100000AF909F908F9008958F929F92AF92BF92D2
:10101000CF92DF92EF92FF926091060170910701EB
:101020008091080190910901611571058105910573
:1010300021F464E279ED8BE597E02DE133EF41E0B7
:1010400050E00E945C0849015A019B01AC01A7EAEB
:10105000B1E40E947B086B017C01ACEEB4EFA5010A
:1010600094010E948908C60ED71EE81EF91EF7FEDD
:1010700006C081E0C81AD108E10880E8F80AC092E9
:101080000601D0920701E0920801F0920901C70120
:10109000B6019F77FF90EF90DF90CF90BF90AF9019
:1010A0009F908F900895609306017093070180933D
:1010B0000801909309010895052E97FB1EF40094F2
:1010C0000E94730857FD07D00E948E0807FC03D0CA
:1010D0004EF40C94730850954095309521953F4FF0
:1010E0004F4F5F4F089590958095709561957F4F14
:1010F0008F4F9F4F08950E94B008A59F900DB49FF9
:10110000900DA49F800D911D11240895B7FF0C949C
:101110007B080E947B08821B930B0895A1E21A2E84
:10112000AA1BBB1BFD010DC0AA1FBB1FEE1FFF1F8B
:10113000A217B307E407F50720F0A21BB30BE40BDB
:10114000F50B661F771F881F991F1A9469F7609522
:101150007095809590959B01AC01BD01CF010895DC
:10116000A29FB001B39FC001A39F700D811D1124E8
:10117000911DB29F700D811D1124911D0895991B21
:1011800079E004C0991F961708F0961B881F7A957E
:10119000C9F780950895EE0FFF1F0590F491E02D9B
:1011A0000994F894FFCF5A00F401000001000000F8
:1011B000000000007301D3000001C00131010F01E4
:0611C00023010D0A0000EE
:107800000C94343C0C94513C0C94513C0C94513CE1
:107810000C94513C0C94513C0C94513C0C94513CB4
:107820000C94513C0C94513C0C94513C0C94513CA4
:107830000C94513C0C94513C0C94513C0C94513C94
:107840000C94513C0C94513C0C94513C0C94513C84
:107850000C94513C0C94513C0C94513C0C94513C74
:107860000C94513C0C94513C11241FBECFEFD8E036
:10787000DEBFCDBF11E0A0E0B1E0ECE9FFE702C060
:1078800005900D92A230B107D9F712E0A2E0B1E065
:1078900001C01D92AD30B107E1F70E942D3D0C945F
:1078A000CC3F0C94003C982F959595959595959582
:1078B000905D8F708A307CF0282F295A8091C0000B
:1078C00085FFFCCF9093C6008091C00085FFFCCF60
:1078D0002093C6000895282F205DF0CF982F809127
:1078E000C00085FFFCCF9093C6000895EF92FF92F1
:1078F0000F931F93EE24FF2487018091C00087FD22
:1079000017C00894E11CF11C011D111D81E4E8164B
:1079100082E4F8068FE0080780E0180770F3E09132
:107920000401F091050109958091C00087FFE9CF1E
:107930008091C6001F910F91FF90EF9008950E94D3
:10794000763C982F8091C00085FFFCCF9093C600B5
:1079500091362CF490330CF09053892F089597555D
:10796000892F08951F930E949F3C182F0E949F3CCF
:107970001295107F810F1F9108951F93182F882350
:1079800021F00E94763C1150E1F71F9108951F935A
:10799000182F0E94763C803249F0809103018F5F5E
:1079A000809303018530C1F01F9108958091C0003C
:1079B00085FFFCCF84E18093C6008091C00085FFE5
:1079C000FCCF1093C6008091C00085FFFCCF80E102
:1079D0008093C6001F910895E0910401F091050184
:1079E00009951F9108950E94763C803241F0809164
:1079F00003018F5F80930301853081F008958091AA
:107A0000C00085FFFCCF84E18093C6008091C00058
:107A100085FFFCCF80E18093C6000895E0910401CA
:107A2000F09105010995089540E951E08823A1F0FE
:107A30002D9A28EE33E0FA013197F1F721503040CA
:107A4000D1F72D9828EE33E0FA013197F1F7215064
:107A50003040D1F7815061F708953F924F925F9285
:107A60006F927F928F929F92AF92BF92CF92DF924E
:107A7000EF92FF920F931F93CF93DF93000080E16B
:107A80008093C4001092C50088E18093C10086E015
:107A90008093C2005098589A259A81E00E94143D24
:107AA00024E1F22E9EE1E92E85E9D82E0FE0C02ECA
:107AB00010E1B12EAA24A394B1E49B2EA6E58A2E50
:107AC000F2E57F2EE0E26E2E79E4572E63E5462E36
:107AD00050E5352E0E94763C8033B1F18133B9F107
:107AE000803409F46FC0813409F476C0823409F41B
:107AF00085C0853409F488C0803531F1823521F1A3
:107B0000813511F1853509F485C0863509F48DC0BC
:107B1000843609F496C0843709F403C1853709F423
:107B200072C1863709F466C0809103018F5F80932C
:107B30000301853079F6E0910401F0910501099582
:107B40000E94763C803351F60E94F33CC3CF0E94E2
:107B5000763C803249F78091C00085FFFCCFF092DF
:107B6000C6008091C00085FFFCCF9092C600809136
:107B7000C00085FFFCCF8092C6008091C00085FFC9
:107B8000FCCF7092C6008091C00085FFFCCF609250
:107B9000C6008091C00085FFFCCF5092C600809146
:107BA000C00085FFFCCF4092C6008091C00085FFD9
:107BB000FCCF3092C6008091C00085FFFCCFB09210
:107BC000C60088CF0E94763C863808F4BDCF0E945C
:107BD000763C0E94F33C7ECF0E94763C803809F4CC
:107BE0009CC0813809F40BC1823809F43CC1883942
:107BF00009F48FC080E00E94C73C6CCF84E10E94F2
:107C0000BD3C0E94F33C66CF85E00E94BD3C0E94D3
:107C1000F33C60CF0E94763C809306010E94763C44
:107C2000809307010E94F33C55CF0E94763C80333D
:107C300009F41DC183E00E94BD3C80E00E94C73C66
:107C400049CF0E94763C809309020E94763C809343
:107C5000080280910C028E7F80930C020E94763C79
:107C6000853409F415C18091080290910902892B8D
:107C700089F000E010E00E94763CF801E85FFE4FDA
:107C800080830F5F1F4F80910802909109020817AF
:107C9000190788F30E94763C803209F045CF809125
:107CA0000C0280FF01C16091060170910701660F0F
:107CB000771F7093070160930601A0910802B091AD
:107CC00009021097C9F0E8E0F1E09B01AD014E0F09
:107CD0005F1FF999FECF32BD21BD819180BDFA9A17
:107CE000F99A2F5F3F4FE417F50799F76A0F7B1F4B
:107CF00070930701609306018091C00085FFFCCF5F
:107D0000F092C6008091C00085FFFCCFB092C60003
:107D1000E1CE83E00E94C73CDDCE82E00E94C73CFA
:107D2000D9CE0E94763C809309020E94763C8093D3
:107D300008028091060190910701880F991F909386
:107D40000701809306010E94763C853409F4A6C0A1
:107D500080910C028E7F80930C020E94763C8032D0
:107D600009F0B8CE8091C00085FFFCCFF092C6002C
:107D7000609108027091090261157105B9F140E046
:107D800050E080910C02A82FA170B82FB27011C0E2
:107D9000BB2309F45CC0E0910601F0910701319624
:107DA000F0930701E09306014F5F5F4F46175707B7
:107DB000E8F4AA2369F3F999FECF209106013091E6
:107DC000070132BD21BDF89A90B58091C00085FFB2
:107DD000FCCF9093C6002F5F3F4F30930701209355
:107DE00006014F5F5F4F4617570718F38091C00099
:107DF00085FDE5CE8091C00085FFF8CFE0CE81E023
:107E00000E94C73C67CE0E94763C803209F08CCE3F
:107E10008091C00085FFFCCFF092C6008091C00029
:107E200085FFFCCFE092C6008091C00085FFFCCFAB
:107E3000D092C6008091C00085FFFCCFC092C600E2
:107E40008091C00085FFFCCFB092C60043CEE09188
:107E50000601F091070194918091C00085FFFCCF4D
:107E60009093C6009CCF80E10E94C73C33CE0E9415
:107E7000763C0E94763C182F0E94763C112309F430
:107E800083C0113009F484C08FE00E94C73C22CE29
:107E900080910C02816080930C02E5CE80910C02EF
:107EA000816080930C0259CF809107018823880F4D
:107EB000880B8A2180930B02809106019091070123
:107EC000880F991F90930701809306018091080203
:107ED00080FF09C080910802909109020196909359
:107EE000090280930802F894F999FECF1127E091D6
:107EF0000601F0910701C8E0D1E08091080290915D
:107F00000902103091F40091570001700130D9F34B
:107F100003E000935700E89500915700017001308D
:107F2000D9F301E100935700E89509901990009169
:107F3000570001700130D9F301E000935700E89534
:107F40001395103498F011270091570001700130FB
:107F5000D9F305E000935700E895009157000170B0
:107F60000130D9F301E100935700E895329602976A
:107F700009F0C7CF103011F00296E5CF112480919F
:107F8000C00085FFB9CEBCCE8EE10E94C73CA2CD19
:0E7F900085E90E94C73C9ECDF894FFCF80008B
:00000001FF
